{
  "contractName": "Burn50",
  "abi": [
    {
      "anonymous": false,
      "inputs": [
        {
          "indexed": false,
          "internalType": "address",
          "name": "receiver",
          "type": "address"
        },
        {
          "indexed": false,
          "internalType": "uint256",
          "name": "bonusAmount",
          "type": "uint256"
        }
      ],
      "name": "EarnedBonus",
      "type": "event"
    },
    {
      "anonymous": false,
      "inputs": [
        {
          "indexed": false,
          "internalType": "address",
          "name": "parent",
          "type": "address"
        },
        {
          "indexed": false,
          "internalType": "address",
          "name": "child",
          "type": "address"
        }
      ],
      "name": "NewRelation",
      "type": "event"
    },
    {
      "anonymous": false,
      "inputs": [
        {
          "indexed": false,
          "internalType": "address",
          "name": "byAddress",
          "type": "address"
        },
        {
          "indexed": false,
          "internalType": "address",
          "name": "toAddress",
          "type": "address"
        },
        {
          "indexed": false,
          "internalType": "uint256",
          "name": "royaltyFee",
          "type": "uint256"
        }
      ],
      "name": "RoyaltyPaid",
      "type": "event"
    },
    {
      "inputs": [
        {
          "internalType": "address",
          "name": "",
          "type": "address"
        }
      ],
      "name": "ancestry",
      "outputs": [
        {
          "internalType": "address",
          "name": "",
          "type": "address"
        }
      ],
      "stateMutability": "view",
      "type": "function",
      "constant": true
    },
    {
      "inputs": [
        {
          "internalType": "address",
          "name": "",
          "type": "address"
        }
      ],
      "name": "balances",
      "outputs": [
        {
          "internalType": "uint256",
          "name": "",
          "type": "uint256"
        }
      ],
      "stateMutability": "view",
      "type": "function",
      "constant": true
    },
    {
      "inputs": [],
      "name": "burntBalance",
      "outputs": [
        {
          "internalType": "uint256",
          "name": "",
          "type": "uint256"
        }
      ],
      "stateMutability": "view",
      "type": "function",
      "constant": true
    },
    {
      "inputs": [
        {
          "internalType": "address",
          "name": "",
          "type": "address"
        },
        {
          "internalType": "uint256",
          "name": "",
          "type": "uint256"
        }
      ],
      "name": "reverseAncestry",
      "outputs": [
        {
          "internalType": "address",
          "name": "",
          "type": "address"
        }
      ],
      "stateMutability": "view",
      "type": "function",
      "constant": true
    },
    {
      "inputs": [],
      "name": "join",
      "outputs": [],
      "stateMutability": "payable",
      "type": "function",
      "payable": true
    },
    {
      "inputs": [
        {
          "internalType": "address",
          "name": "newAddress",
          "type": "address"
        }
      ],
      "name": "invite",
      "outputs": [],
      "stateMutability": "payable",
      "type": "function",
      "payable": true
    },
    {
      "inputs": [
        {
          "internalType": "address payable",
          "name": "to",
          "type": "address"
        },
        {
          "internalType": "uint256",
          "name": "value",
          "type": "uint256"
        }
      ],
      "name": "pay",
      "outputs": [],
      "stateMutability": "payable",
      "type": "function",
      "payable": true
    }
  ],
  "bytecode": "0x608060405234801561001057600080fd5b50610fbf806100206000396000f3fe6080604052600436106100705760003560e01c80634b77c4681161004e5780634b77c4681461018a578063b688a363146101ce578063bee56558146101d8578063c40768761461025357610070565b806327e235e3146100755780632aa0e4ca146100da578063335b761f1461015f575b600080fd5b34801561008157600080fd5b506100c46004803603602081101561009857600080fd5b81019080803573ffffffffffffffffffffffffffffffffffffffff1690602001909291905050506102a1565b6040518082815260200191505060405180910390f35b3480156100e657600080fd5b50610133600480360360408110156100fd57600080fd5b81019080803573ffffffffffffffffffffffffffffffffffffffff169060200190929190803590602001909291905050506102b9565b604051808273ffffffffffffffffffffffffffffffffffffffff16815260200191505060405180910390f35b34801561016b57600080fd5b50610174610307565b6040518082815260200191505060405180910390f35b6101cc600480360360208110156101a057600080fd5b81019080803573ffffffffffffffffffffffffffffffffffffffff16906020019092919050505061030d565b005b6101d6610878565b005b3480156101e457600080fd5b50610227600480360360208110156101fb57600080fd5b81019080803573ffffffffffffffffffffffffffffffffffffffff169060200190929190505050610bc9565b604051808273ffffffffffffffffffffffffffffffffffffffff16815260200191505060405180910390f35b61029f6004803603604081101561026957600080fd5b81019080803573ffffffffffffffffffffffffffffffffffffffff16906020019092919080359060200190929190505050610bfc565b005b60016020528060005260406000206000915090505481565b600360205281600052604060002081815481106102d557600080fd5b906000526020600020016000915091509054906101000a900473ffffffffffffffffffffffffffffffffffffffff1681565b60005481565b600073ffffffffffffffffffffffffffffffffffffffff16600260003373ffffffffffffffffffffffffffffffffffffffff1673ffffffffffffffffffffffffffffffffffffffff16815260200190815260200160002060009054906101000a900473ffffffffffffffffffffffffffffffffffffffff1673ffffffffffffffffffffffffffffffffffffffff16141561040f576040517f08c379a00000000000000000000000000000000000000000000000000000000081526004018080602001828103825260168152602001807f4163636f756e7420646f6573206e6f742065786973740000000000000000000081525060200191505060405180910390fd5b600073ffffffffffffffffffffffffffffffffffffffff16600260008373ffffffffffffffffffffffffffffffffffffffff1673ffffffffffffffffffffffffffffffffffffffff16815260200190815260200160002060009054906101000a900473ffffffffffffffffffffffffffffffffffffffff1673ffffffffffffffffffffffffffffffffffffffff1614610510576040517f08c379a00000000000000000000000000000000000000000000000000000000081526004018080602001828103825260168152602001807f4163636f756e7420616c7265616479206578697374730000000000000000000081525060200191505060405180910390fd5b66071afd498d000034101561058d576040517f08c379a00000000000000000000000000000000000000000000000000000000081526004018080602001828103825260168152602001807f41746c6561737420302e3030322072657175697265640000000000000000000081525060200191505060405180910390fd5b600060016000600173ffffffffffffffffffffffffffffffffffffffff1673ffffffffffffffffffffffffffffffffffffffff1681526020019081526020016000205490506000600a82816105de57fe5b049050600081905080820160016000600173ffffffffffffffffffffffffffffffffffffffff1673ffffffffffffffffffffffffffffffffffffffff16815260200190815260200160002060008282540392505081905550600082146106a3578060008082825401925050819055507fa92b98b092c023033463ca4809994e26f2972a33d6f7a6edfab842cf373e88638483604051808373ffffffffffffffffffffffffffffffffffffffff1681526020018281526020019250505060405180910390a15b813401600160008673ffffffffffffffffffffffffffffffffffffffff1673ffffffffffffffffffffffffffffffffffffffff1681526020019081526020016000208190555033600260008673ffffffffffffffffffffffffffffffffffffffff1673ffffffffffffffffffffffffffffffffffffffff16815260200190815260200160002060006101000a81548173ffffffffffffffffffffffffffffffffffffffff021916908373ffffffffffffffffffffffffffffffffffffffff160217905550600360003373ffffffffffffffffffffffffffffffffffffffff1673ffffffffffffffffffffffffffffffffffffffff168152602001908152602001600020849080600181540180825580915050600190039060005260206000200160009091909190916101000a81548173ffffffffffffffffffffffffffffffffffffffff021916908373ffffffffffffffffffffffffffffffffffffffff1602179055507fb039e6eabba35f03201a9632bb9813ed2d4407db62b4cb151c714c38c66db27b3385604051808373ffffffffffffffffffffffffffffffffffffffff1681526020018273ffffffffffffffffffffffffffffffffffffffff1681526020019250505060405180910390a150505050565b600073ffffffffffffffffffffffffffffffffffffffff16600260003373ffffffffffffffffffffffffffffffffffffffff1673ffffffffffffffffffffffffffffffffffffffff16815260200190815260200160002060009054906101000a900473ffffffffffffffffffffffffffffffffffffffff1673ffffffffffffffffffffffffffffffffffffffff1614610979576040517f08c379a00000000000000000000000000000000000000000000000000000000081526004018080602001828103825260168152602001807f4163636f756e7420616c7265616479206578697374730000000000000000000081525060200191505060405180910390fd5b66470de4df8200003410156109f6576040517f08c379a00000000000000000000000000000000000000000000000000000000081526004018080602001828103825260158152602001807f41746c6561737420302e3032207265717569726564000000000000000000000081525060200191505060405180910390fd5b6001600260003373ffffffffffffffffffffffffffffffffffffffff1673ffffffffffffffffffffffffffffffffffffffff16815260200190815260200160002060006101000a81548173ffffffffffffffffffffffffffffffffffffffff021916908373ffffffffffffffffffffffffffffffffffffffff16021790555060036000600173ffffffffffffffffffffffffffffffffffffffff1673ffffffffffffffffffffffffffffffffffffffff168152602001908152602001600020339080600181540180825580915050600190039060005260206000200160009091909190916101000a81548173ffffffffffffffffffffffffffffffffffffffff021916908373ffffffffffffffffffffffffffffffffffffffff1602179055503460016000600173ffffffffffffffffffffffffffffffffffffffff1673ffffffffffffffffffffffffffffffffffffffff168152602001908152602001600020819055507fb039e6eabba35f03201a9632bb9813ed2d4407db62b4cb151c714c38c66db27b600133604051808373ffffffffffffffffffffffffffffffffffffffff1681526020018273ffffffffffffffffffffffffffffffffffffffff1681526020019250505060405180910390a1565b60026020528060005260406000206000915054906101000a900473ffffffffffffffffffffffffffffffffffffffff1681565b600073ffffffffffffffffffffffffffffffffffffffff16600260003373ffffffffffffffffffffffffffffffffffffffff1673ffffffffffffffffffffffffffffffffffffffff16815260200190815260200160002060009054906101000a900473ffffffffffffffffffffffffffffffffffffffff1673ffffffffffffffffffffffffffffffffffffffff161415610cfe576040517f08c379a00000000000000000000000000000000000000000000000000000000081526004018080602001828103825260168152602001807f4163636f756e7420646f6573206e6f742065786973740000000000000000000081525060200191505060405180910390fd5b6000600160003373ffffffffffffffffffffffffffffffffffffffff1673ffffffffffffffffffffffffffffffffffffffff1681526020019081526020016000205490506000829050818184011115610da2576040517f08c379a0000000000000000000000000000000000000000000000000000000008152600401808060200182810382526026815260200180610f646026913960400191505060405180910390fd5b6000600260003373ffffffffffffffffffffffffffffffffffffffff1673ffffffffffffffffffffffffffffffffffffffff16815260200190815260200160002060009054906101000a900473ffffffffffffffffffffffffffffffffffffffff169050818401600160003373ffffffffffffffffffffffffffffffffffffffff1673ffffffffffffffffffffffffffffffffffffffff168152602001908152602001600020600082825403925050819055508473ffffffffffffffffffffffffffffffffffffffff166108fc859081150290604051600060405180830381858888f19350505050158015610e9b573d6000803e3d6000fd5b5081600160008373ffffffffffffffffffffffffffffffffffffffff1673ffffffffffffffffffffffffffffffffffffffff168152602001908152602001600020600082825401925050819055507fbdf0502df1b76d58521b2a929580ca100c2121e0ae38717b260d9cfa44c23b32338284604051808473ffffffffffffffffffffffffffffffffffffffff1681526020018373ffffffffffffffffffffffffffffffffffffffff168152602001828152602001935050505060405180910390a1505050505056fe496e73756666696369656e742062616c616e636520746f2070617920726f79616c7479466565a264697066735822122029ad5322c316779807dc6cbf13492857f34a3edeb52238a69969d8d17519e5a364736f6c63430007060033",
  "immutableReferences": {},
  "source": "// SPDX-License-Identifier: GPL-3.0\n\npragma solidity >=0.7.0 <0.9.0;\n\ncontract Burn50 {\n\n    uint256 public burntBalance;\n    mapping(address => uint256) public balances;\n    mapping(address => address) public ancestry;\n    mapping(address => address[]) public reverseAncestry;\n    \n    event NewRelation(address parent, address child);\n    event RoyaltyPaid(address byAddress, address toAddress, uint256 royaltyFee);\n    event EarnedBonus(address receiver, uint256 bonusAmount);\n\n    function join() public payable {\n        require(ancestry[msg.sender] == address(0), \"Account already exists\");\n        require(msg.value >= 20000000 gwei, \"Atleast 0.02 required\");\n        ancestry[msg.sender] = address(0x1);\n        reverseAncestry[address(0x1)].push(msg.sender);\n        balances[address(0x1)] = msg.value;\n        emit NewRelation(address(0x1), msg.sender);\n    }\n    \n    function invite(address newAddress) public payable {\n        require(ancestry[msg.sender] != address(0), \"Account does not exist\");\n        require(ancestry[newAddress] == address(0), \"Account already exists\");\n        require(msg.value >= 2000000 gwei, \"Atleast 0.002 required\");\n        uint256 bonusBalance = balances[address(0x1)];\n        uint256 bonus = bonusBalance / 10;\n        uint256 burnValue = bonus;\n        balances[address(0x1)] -= (bonus + burnValue);\n        if (bonus != 0) {\n            burntBalance += burnValue;\n            emit EarnedBonus(newAddress, bonus);\n        }\n        balances[newAddress] = msg.value + bonus;\n        ancestry[newAddress] = msg.sender;\n        reverseAncestry[msg.sender].push(newAddress);\n        emit NewRelation(msg.sender, newAddress);\n    }\n    \n    function pay(address payable to, uint256 value) public payable {\n        require(ancestry[msg.sender] != address(0), \"Account does not exist\");\n        uint256 balance = balances[msg.sender];\n        uint256 royaltyFee = value;\n        require((value + royaltyFee) <= balance, \"Insufficient balance to pay royaltyFee\");\n        address ancestor = ancestry[msg.sender];\n        balances[msg.sender] -= value + royaltyFee;\n        to.transfer(value);   \n        balances[ancestor] += royaltyFee;\n        emit RoyaltyPaid(msg.sender, ancestor, royaltyFee);\n    }\n}\n",
  "sourcePath": "/Users/yadunandanbatchu/code/exp/ethereum-app/contracts/Burn50.sol",
  "compiler": {
    "name": "solc",
    "version": "0.7.6+commit.7338295f.Emscripten.clang"
  },
  "schemaVersion": "3.3.4",
  "updatedAt": "2021-05-04T20:59:46.091Z",
  "networkType": "ethereum",
  "devdoc": {
    "kind": "dev",
    "methods": {},
    "version": 1
  },
  "userdoc": {
    "kind": "user",
    "methods": {},
    "version": 1
  }
}